{
  "contractName": "Retail",
  "abi": [
    {
      "inputs": [],
      "stateMutability": "nonpayable",
      "type": "constructor"
    },
    {
      "inputs": [
        {
          "internalType": "uint256",
          "name": "",
          "type": "uint256"
        }
      ],
      "name": "DatosPersonales_array",
      "outputs": [
        {
          "internalType": "address",
          "name": "",
          "type": "address"
        }
      ],
      "stateMutability": "view",
      "type": "function",
      "constant": true
    },
    {
      "inputs": [
        {
          "internalType": "uint256",
          "name": "",
          "type": "uint256"
        }
      ],
      "name": "Prendas_array",
      "outputs": [
        {
          "internalType": "uint256",
          "name": "",
          "type": "uint256"
        }
      ],
      "stateMutability": "view",
      "type": "function",
      "constant": true
    },
    {
      "inputs": [
        {
          "internalType": "address",
          "name": "",
          "type": "address"
        }
      ],
      "name": "informacionPersonal",
      "outputs": [
        {
          "internalType": "string",
          "name": "nombre",
          "type": "string"
        },
        {
          "internalType": "string",
          "name": "lugarTrabajo",
          "type": "string"
        },
        {
          "internalType": "string",
          "name": "url",
          "type": "string"
        }
      ],
      "stateMutability": "view",
      "type": "function",
      "constant": true
    },
    {
      "inputs": [
        {
          "internalType": "uint256",
          "name": "",
          "type": "uint256"
        }
      ],
      "name": "informacionPrenda",
      "outputs": [
        {
          "internalType": "uint256",
          "name": "idPrenda",
          "type": "uint256"
        },
        {
          "internalType": "address",
          "name": "creador",
          "type": "address"
        },
        {
          "internalType": "string",
          "name": "material",
          "type": "string"
        },
        {
          "internalType": "string",
          "name": "localizacion",
          "type": "string"
        },
        {
          "internalType": "string",
          "name": "nombre",
          "type": "string"
        },
        {
          "internalType": "string",
          "name": "url",
          "type": "string"
        }
      ],
      "stateMutability": "view",
      "type": "function",
      "constant": true
    },
    {
      "inputs": [],
      "name": "getDatosPersonalesLength",
      "outputs": [
        {
          "internalType": "uint256",
          "name": "",
          "type": "uint256"
        }
      ],
      "stateMutability": "view",
      "type": "function",
      "constant": true
    },
    {
      "inputs": [],
      "name": "getPrendasLength",
      "outputs": [
        {
          "internalType": "uint256",
          "name": "",
          "type": "uint256"
        }
      ],
      "stateMutability": "view",
      "type": "function",
      "constant": true
    },
    {
      "inputs": [
        {
          "internalType": "string",
          "name": "_nombre",
          "type": "string"
        },
        {
          "internalType": "string",
          "name": "_lugarTrabajo",
          "type": "string"
        },
        {
          "internalType": "string",
          "name": "_url",
          "type": "string"
        }
      ],
      "name": "almacenarInformacionPersonal",
      "outputs": [],
      "stateMutability": "nonpayable",
      "type": "function"
    },
    {
      "inputs": [
        {
          "internalType": "string",
          "name": "_material",
          "type": "string"
        },
        {
          "internalType": "string",
          "name": "_localizacion",
          "type": "string"
        },
        {
          "internalType": "string",
          "name": "_nombre",
          "type": "string"
        },
        {
          "internalType": "string",
          "name": "_url",
          "type": "string"
        }
      ],
      "name": "crearPrenda",
      "outputs": [],
      "stateMutability": "nonpayable",
      "type": "function"
    },
    {
      "inputs": [
        {
          "internalType": "uint256",
          "name": "_idPrenda",
          "type": "uint256"
        }
      ],
      "name": "obtenerInformacionPrenda",
      "outputs": [
        {
          "internalType": "string",
          "name": "nombrePersona",
          "type": "string"
        },
        {
          "internalType": "string",
          "name": "lugarTrabajoPersona",
          "type": "string"
        },
        {
          "internalType": "string",
          "name": "urlPersona",
          "type": "string"
        },
        {
          "internalType": "string",
          "name": "material",
          "type": "string"
        },
        {
          "internalType": "string",
          "name": "localizacion",
          "type": "string"
        },
        {
          "internalType": "string",
          "name": "nombre",
          "type": "string"
        },
        {
          "internalType": "string",
          "name": "url",
          "type": "string"
        },
        {
          "internalType": "address",
          "name": "creador",
          "type": "address"
        }
      ],
      "stateMutability": "view",
      "type": "function",
      "constant": true
    },
    {
      "inputs": [
        {
          "internalType": "address",
          "name": "_wallet",
          "type": "address"
        }
      ],
      "name": "obtenerIdsPrendasPorPersona",
      "outputs": [
        {
          "internalType": "uint256[]",
          "name": "",
          "type": "uint256[]"
        }
      ],
      "stateMutability": "view",
      "type": "function",
      "constant": true
    },
    {
      "inputs": [
        {
          "internalType": "address",
          "name": "_wallet",
          "type": "address"
        }
      ],
      "name": "obtenerIdsPrendasPorPersonalength",
      "outputs": [
        {
          "internalType": "uint256",
          "name": "",
          "type": "uint256"
        }
      ],
      "stateMutability": "view",
      "type": "function",
      "constant": true
    }
  ],
  "bytecode": "0x608060405234801561001057600080fd5b5060006002556113c1806100256000396000f3fe608060405234801561001057600080fd5b50600436106100a95760003560e01c80634d0458e7116100715780634d0458e714610153578063543ac4db146101755780637618e9b01461019c578063b4edd8a8146101a4578063b5756120146101c9578063e4a366b2146101de57600080fd5b80630fde4be4146100ae5780631862a89e146100c95780632a3a4123146100dc5780632c647da6146101085780633d59802514610128575b600080fd5b6100b66101f1565b6040519081526020015b60405180910390f35b6100b66100d7366004610f1a565b610209565b6100b66100ea366004610f33565b6001600160a01b031660009081526020819052604090206003015490565b61011b610116366004610f33565b61022a565b6040516100c09190610f63565b61013b610136366004610f1a565b610297565b6040516001600160a01b0390911681526020016100c0565b610166610161366004610f33565b6102c1565b6040516100c093929190610ff4565b610188610183366004610f1a565b61047b565b6040516100c0989796959493929190611037565b6100b66108bf565b6101b76101b2366004610f1a565b6108d1565b6040516100c0969594939291906110e1565b6101dc6101d73660046111f5565b610b31565b005b6101dc6101ec3660046112a2565b610d99565b60045460009015610203575060045490565b50600090565b6004818154811061021957600080fd5b600091825260209091200154905081565b6001600160a01b0381166000908152602081815260409182902060030180548351818402810184019094528084526060939283018282801561028b57602002820191906000526020600020905b815481526020019060010190808311610277575b50505050509050919050565b600381815481106102a757600080fd5b6000918252602090912001546001600160a01b0316905081565b6000602081905290815260409020805481906102dc9061132a565b80601f01602080910402602001604051908101604052809291908181526020018280546103089061132a565b80156103555780601f1061032a57610100808354040283529160200191610355565b820191906000526020600020905b81548152906001019060200180831161033857829003601f168201915b50505050509080600101805461036a9061132a565b80601f01602080910402602001604051908101604052809291908181526020018280546103969061132a565b80156103e35780601f106103b8576101008083540402835291602001916103e3565b820191906000526020600020905b8154815290600101906020018083116103c657829003601f168201915b5050505050908060020180546103f89061132a565b80601f01602080910402602001604051908101604052809291908181526020018280546104249061132a565b80156104715780601f1061044657610100808354040283529160200191610471565b820191906000526020600020905b81548152906001019060200180831161045457829003601f168201915b5050505050905083565b6000818152600160208181526040808420928301546001600160a01b031684529083905282208054606093849384938493849384938493919290919081906104c29061132a565b80601f01602080910402602001604051908101604052809291908181526020018280546104ee9061132a565b801561053b5780601f106105105761010080835404028352916020019161053b565b820191906000526020600020905b81548152906001019060200180831161051e57829003601f168201915b505050505099508060010180546105519061132a565b80601f016020809104026020016040519081016040528092919081815260200182805461057d9061132a565b80156105ca5780601f1061059f576101008083540402835291602001916105ca565b820191906000526020600020905b8154815290600101906020018083116105ad57829003601f168201915b505050505098508060020180546105e09061132a565b80601f016020809104026020016040519081016040528092919081815260200182805461060c9061132a565b80156106595780601f1061062e57610100808354040283529160200191610659565b820191906000526020600020905b81548152906001019060200180831161063c57829003601f168201915b5050505050975081600201805461066f9061132a565b80601f016020809104026020016040519081016040528092919081815260200182805461069b9061132a565b80156106e85780601f106106bd576101008083540402835291602001916106e8565b820191906000526020600020905b8154815290600101906020018083116106cb57829003601f168201915b505050505096508160030180546106fe9061132a565b80601f016020809104026020016040519081016040528092919081815260200182805461072a9061132a565b80156107775780601f1061074c57610100808354040283529160200191610777565b820191906000526020600020905b81548152906001019060200180831161075a57829003601f168201915b5050505050955081600501805461078d9061132a565b80601f01602080910402602001604051908101604052809291908181526020018280546107b99061132a565b80156108065780601f106107db57610100808354040283529160200191610806565b820191906000526020600020905b8154815290600101906020018083116107e957829003601f168201915b5050505050935081600401805461081c9061132a565b80601f01602080910402602001604051908101604052809291908181526020018280546108489061132a565b80156108955780601f1061086a57610100808354040283529160200191610895565b820191906000526020600020905b81548152906001019060200180831161087857829003601f168201915b5050506001909401549b9d9a9c50989a97999698509693956001600160a01b039094169450505050565b60035460009015610203575060035490565b60016020819052600091825260409091208054918101546002820180546001600160a01b0390921692916109049061132a565b80601f01602080910402602001604051908101604052809291908181526020018280546109309061132a565b801561097d5780601f106109525761010080835404028352916020019161097d565b820191906000526020600020905b81548152906001019060200180831161096057829003601f168201915b5050505050908060030180546109929061132a565b80601f01602080910402602001604051908101604052809291908181526020018280546109be9061132a565b8015610a0b5780601f106109e057610100808354040283529160200191610a0b565b820191906000526020600020905b8154815290600101906020018083116109ee57829003601f168201915b505050505090806004018054610a209061132a565b80601f0160208091040260200160405190810160405280929190818152602001828054610a4c9061132a565b8015610a995780601f10610a6e57610100808354040283529160200191610a99565b820191906000526020600020905b815481529060010190602001808311610a7c57829003601f168201915b505050505090806005018054610aae9061132a565b80601f0160208091040260200160405190810160405280929190818152602001828054610ada9061132a565b8015610b275780601f10610afc57610100808354040283529160200191610b27565b820191906000526020600020905b815481529060010190602001808311610b0a57829003601f168201915b5050505050905086565b6000845111610b875760405162461bcd60e51b815260206004820181905260248201527f456c206d6174657269616c206e6f20707565646520657374617220766163696f60448201526064015b60405180910390fd5b6000835111610be45760405162461bcd60e51b8152602060048201526024808201527f4c61206c6f63616c697a6163696f6e206e6f20707565646520657374617220766044820152636163696160e01b6064820152608401610b7e565b3360009081526020819052604081208054610bfe9061132a565b905011610c4d5760405162461bcd60e51b815260206004820152601f60248201527f5072696d65726f20646562657320637265617220756e6120706572736f6e61006044820152606401610b7e565b6000825111610c9e5760405162461bcd60e51b815260206004820152601e60248201527f456c206e6f6d627265206e6f20707565646520657374617220766163696f00006044820152606401610b7e565b60028054906000610cae83611364565b9091555050600280546000818152600160208181526040909220928355820180546001600160a01b0319163317905586519192610cf19290840191880190610e81565b508351610d079060038301906020870190610e81565b508251610d1d9060048301906020860190610e81565b508151610d339060058301906020850190610e81565b505033600090815260208181526040822060028054600390920180546001818101835591865293852090930191909155546004805492830181559092527f8a35acfbc15ff81a39ae7d344fd709f28e8600b4aa8c65c6b64bfe7fe36bd19b015550505050565b6000835111610dea5760405162461bcd60e51b815260206004820152601e60248201527f456c206e6f6d627265206e6f20707565646520657374617220766163696f00006044820152606401610b7e565b3360009081526020818152604090912084519091610e0c918391870190610e81565b508251610e229060018301906020860190610e81565b508151610e389060028301906020850190610e81565b5050600380546001810182556000919091527fc2575a0e9e593c00f959f8c92f12db2869c3395a3b0502d05e2516446f71f85b0180546001600160a01b03191633179055505050565b828054610e8d9061132a565b90600052602060002090601f016020900481019282610eaf5760008555610ef5565b82601f10610ec857805160ff1916838001178555610ef5565b82800160010185558215610ef5579182015b82811115610ef5578251825591602001919060010190610eda565b50610f01929150610f05565b5090565b5b80821115610f015760008155600101610f06565b600060208284031215610f2c57600080fd5b5035919050565b600060208284031215610f4557600080fd5b81356001600160a01b0381168114610f5c57600080fd5b9392505050565b6020808252825182820181905260009190848201906040850190845b81811015610f9b57835183529284019291840191600101610f7f565b50909695505050505050565b6000815180845260005b81811015610fcd57602081850181015186830182015201610fb1565b81811115610fdf576000602083870101525b50601f01601f19169290920160200192915050565b6060815260006110076060830186610fa7565b82810360208401526110198186610fa7565b9050828103604084015261102d8185610fa7565b9695505050505050565b600061010080835261104b8184018c610fa7565b9050828103602084015261105f818b610fa7565b90508281036040840152611073818a610fa7565b905082810360608401526110878189610fa7565b9050828103608084015261109b8188610fa7565b905082810360a08401526110af8187610fa7565b905082810360c08401526110c38186610fa7565b91505060018060a01b03831660e08301529998505050505050505050565b8681526001600160a01b038616602082015260c06040820181905260009061110b90830187610fa7565b828103606084015261111d8187610fa7565b905082810360808401526111318186610fa7565b905082810360a08401526111458185610fa7565b9998505050505050505050565b634e487b7160e01b600052604160045260246000fd5b600082601f83011261117957600080fd5b813567ffffffffffffffff8082111561119457611194611152565b604051601f8301601f19908116603f011681019082821181831017156111bc576111bc611152565b816040528381528660208588010111156111d557600080fd5b836020870160208301376000602085830101528094505050505092915050565b6000806000806080858703121561120b57600080fd5b843567ffffffffffffffff8082111561122357600080fd5b61122f88838901611168565b9550602087013591508082111561124557600080fd5b61125188838901611168565b9450604087013591508082111561126757600080fd5b61127388838901611168565b9350606087013591508082111561128957600080fd5b5061129687828801611168565b91505092959194509250565b6000806000606084860312156112b757600080fd5b833567ffffffffffffffff808211156112cf57600080fd5b6112db87838801611168565b945060208601359150808211156112f157600080fd5b6112fd87838801611168565b9350604086013591508082111561131357600080fd5b5061132086828701611168565b9150509250925092565b600181811c9082168061133e57607f821691505b60208210810361135e57634e487b7160e01b600052602260045260246000fd5b50919050565b60006001820161138457634e487b7160e01b600052601160045260246000fd5b506001019056fea2646970667358221220afd8c13ff5b70fc22ad0e3d3abfc0407b52b873d4c056db37afcca34749677c364736f6c634300080d0033",
  "immutableReferences": {},
  "source": "// SPDX-License-Identifier: MIT\npragma solidity ^0.8.0;\n\ncontract Retail {\n    // Estructura para almacenar informacion personal\n    struct DatosPersonales {\n        string nombre;\n        string lugarTrabajo;\n        string url;\n        uint[] prendas; // Identificadores de prendas asociadas\n    }\n\n    // Estructura para almacenar informacion de prendas\n    struct InformacionPrenda {\n        uint idPrenda; // Identificador nico de la prenda\n        address creador; // Direccion del creador de la prenda\n        string material;\n        string localizacion;\n        string nombre;\n        string url; // Nueva propiedad URL\n    }\n\n    // Mapeo de direcciones a informacion personal\n    mapping(address => DatosPersonales) public informacionPersonal;\n\n    // Mapeo de identificadores de prendas a informacion de prendas\n    mapping(uint => InformacionPrenda) public informacionPrenda;\n\n    // Contador para generar identificadores nicos de prendas\n    uint private contadorPrendas;\n\n    // Number of DatosPersonales\n    address[] public DatosPersonales_array;\n\n    // Number of Prendas_array\n    uint[] public Prendas_array;\n\n    // Constructor del contrato\n    constructor() {\n        contadorPrendas = 0;\n    }\n\n \n\n    // Funcion para ver el nmero de compaias que hay\n    function getDatosPersonalesLength() external view returns (uint256) {\n        if (DatosPersonales_array.length > 0) {\n            return DatosPersonales_array.length;\n        } else {\n            return 0; // or handle this case accordingly\n        }\n    }\n    // Funcion para ver el nmero de compaias que hay\n    function getPrendasLength() external view returns (uint256) {\n        if (Prendas_array.length > 0) {\n            return Prendas_array.length;\n        } else {\n            return 0; // or handle this case accordingly\n        }\n    }\n\n\n    // Funcion para almacenar informacion personal\n    function almacenarInformacionPersonal(\n        string memory _nombre,\n        string memory _lugarTrabajo,\n        string memory _url\n    ) public {\n        require(bytes(_nombre).length > 0, \"El nombre no puede estar vacio\");\n\n        DatosPersonales storage persona = informacionPersonal[msg.sender];\n        persona.nombre = _nombre;\n        persona.lugarTrabajo = _lugarTrabajo;\n        persona.url = _url;\n        DatosPersonales_array.push(msg.sender);\n    }\n\n    // Funcion para almacenar informacion de prendas\n    function crearPrenda(string memory _material, string memory _localizacion, string memory _nombre, string memory _url) public {\n        require(bytes(_material).length > 0, \"El material no puede estar vacio\");\n        require(bytes(_localizacion).length > 0, \"La localizacion no puede estar vacia\");\n        require(bytes(informacionPersonal[msg.sender].nombre).length > 0, \"Primero debes crear una persona\");\n        require(bytes(_nombre).length > 0, \"El nombre no puede estar vacio\");\n\n        // Incrementar el contador de prendas\n        contadorPrendas++;\n\n        // Crear una nueva prenda\n        InformacionPrenda storage prenda = informacionPrenda[contadorPrendas];\n        prenda.idPrenda = contadorPrendas;\n        prenda.creador = msg.sender;\n        prenda.material = _material;\n        prenda.localizacion = _localizacion;\n        prenda.nombre = _nombre;\n        prenda.url = _url; // Nueva propiedad URL\n\n        // Asociar la nueva prenda al creador\n        informacionPersonal[msg.sender].prendas.push(contadorPrendas);\n        Prendas_array.push(contadorPrendas);\n    }\n\n    // Funcion para obtener informacion de una prenda y la persona que la hizo por su ID\n    function obtenerInformacionPrenda(uint _idPrenda) public view returns (\n        string memory nombrePersona,\n        string memory lugarTrabajoPersona,\n        string memory urlPersona,\n        string memory material,\n        string memory localizacion,\n        string memory nombre,\n        string memory url,\n        address creador\n    ) {\n        InformacionPrenda storage prenda = informacionPrenda[_idPrenda];\n        DatosPersonales storage persona = informacionPersonal[prenda.creador];\n\n        nombrePersona = persona.nombre;\n        lugarTrabajoPersona = persona.lugarTrabajo;\n        urlPersona = persona.url;\n        material = prenda.material;\n        localizacion = prenda.localizacion;\n        url = prenda.url;\n        nombre = prenda.nombre;\n        creador = prenda.creador;\n    }\n\n    // Funcion para obtener todos los IDs de prendas asociadas a una persona\n    function obtenerIdsPrendasPorPersona(address _wallet) public view returns (uint[] memory) {\n        return informacionPersonal[_wallet].prendas;\n    }\n\n    // Funcion para obtener la cantidad de prendas asociadas a una persona\n    function obtenerIdsPrendasPorPersonalength(address _wallet) public view returns (uint256) {\n        return informacionPersonal[_wallet].prendas.length;\n    }\n\n\n\n\n}\n",
  "sourcePath": "/home/pablo/Desktop/DAO/truffle/contracts/Retail.sol",
  "compiler": {
    "name": "solc",
    "version": "0.8.13+commit.abaa5c0e.Emscripten.clang"
  },
  "schemaVersion": "3.4.14",
  "updatedAt": "2023-12-25T15:50:45.781Z",
  "networkType": "ethereum",
  "devdoc": {
    "kind": "dev",
    "methods": {},
    "version": 1
  },
  "userdoc": {
    "kind": "user",
    "methods": {},
    "version": 1
  }
}